{
  "_format": "hh-sol-artifact-1",
  "contractName": "SimpleStorage",
  "sourceName": "contracts/SimpleStorage.sol",
  "abi": [
    {
      "inputs": [],
      "name": "data",
      "outputs": [
        {
          "internalType": "uint256",
          "name": "",
          "type": "uint256"
        }
      ],
      "stateMutability": "view",
      "type": "function"
    },
    {
      "inputs": [],
      "name": "retrieve",
      "outputs": [
        {
          "internalType": "uint256",
          "name": "",
          "type": "uint256"
        }
      ],
      "stateMutability": "view",
      "type": "function"
    },
    {
      "inputs": [
        {
          "internalType": "uint256",
          "name": "_data",
          "type": "uint256"
        }
      ],
      "name": "store",
      "outputs": [],
      "stateMutability": "nonpayable",
      "type": "function"
    }
  ],
  "bytecode": "0x6080604052348015600f57600080fd5b5061039b8061001f6000396000f3fe608060405234801561001057600080fd5b50600436106100415760003560e01c80632e64cec1146100465780636057361d1461006457806373d4a13a14610080575b600080fd5b61004e61009e565b60405161005b91906101fd565b60405180910390f35b61007e60048036038101906100799190610249565b6100a7565b005b6100886100f2565b60405161009591906101fd565b60405180910390f35b60008054905090565b806000819055506100ef6040518060400160405280600b81526020017f446174612073746f7265640000000000000000000000000000000000000000008152506000546100f8565b50565b60005481565b610190828260405160240161010e929190610306565b6040516020818303038152906040527fb60e72cc000000000000000000000000000000000000000000000000000000007bffffffffffffffffffffffffffffffffffffffffffffffffffffffff19166020820180517bffffffffffffffffffffffffffffffffffffffffffffffffffffffff8381831617835250505050610194565b5050565b6101ab816101a36101ae6101cf565b63ffffffff16565b50565b60006a636f6e736f6c652e6c6f679050600080835160208501845afa505050565b6101da819050919050565b6101e2610336565b565b6000819050919050565b6101f7816101e4565b82525050565b600060208201905061021260008301846101ee565b92915050565b600080fd5b610226816101e4565b811461023157600080fd5b50565b6000813590506102438161021d565b92915050565b60006020828403121561025f5761025e610218565b5b600061026d84828501610234565b91505092915050565b600081519050919050565b600082825260208201905092915050565b60005b838110156102b0578082015181840152602081019050610295565b60008484015250505050565b6000601f19601f8301169050919050565b60006102d882610276565b6102e28185610281565b93506102f2818560208601610292565b6102fb816102bc565b840191505092915050565b6000604082019050818103600083015261032081856102cd565b905061032f60208301846101ee565b9392505050565b7f4e487b7100000000000000000000000000000000000000000000000000000000600052605160045260246000fdfea2646970667358221220fb41855a75b8c816c08f2bee5106e8712c8dccad799bb0ce45ca787ed679bd0064736f6c634300081b0033",
  "linkReferences": {},
  "deployedLinkReferences": {}
}