{
  "_format": "hh-sol-artifact-1",
  "contractName": "SimpleStorage",
  "sourceName": "contracts/SimpleStorage.sol",
  "abi": [
    {
      "inputs": [],
      "stateMutability": "nonpayable",
      "type": "constructor"
    },
    {
      "inputs": [],
      "name": "data",
      "outputs": [
        {
          "internalType": "uint256",
          "name": "",
          "type": "uint256"
        }
      ],
      "stateMutability": "view",
      "type": "function"
    },
    {
      "inputs": [],
      "name": "getData",
      "outputs": [
        {
          "internalType": "uint256",
          "name": "",
          "type": "uint256"
        }
      ],
      "stateMutability": "view",
      "type": "function"
    },
    {
      "inputs": [
        {
          "internalType": "uint256",
          "name": "_data",
          "type": "uint256"
        }
      ],
      "name": "saveData",
      "outputs": [],
      "stateMutability": "nonpayable",
      "type": "function"
    }
  ],
  "bytecode": "0x6080604052348015600f57600080fd5b506101f960008190555061039b806100286000396000f3fe608060405234801561001057600080fd5b50600436106100415760003560e01c80633bc5de301461004657806373d4a13a14610064578063f6f0460114610082575b600080fd5b61004e61009e565b60405161005b91906101fd565b60405180910390f35b61006c6100a7565b60405161007991906101fd565b60405180910390f35b61009c60048036038101906100979190610249565b6100ad565b005b60008054905090565b60005481565b806000819055506100f56040518060400160405280600b81526020017f446174612073746f7265640000000000000000000000000000000000000000008152506000546100f8565b50565b610190828260405160240161010e929190610306565b6040516020818303038152906040527fb60e72cc000000000000000000000000000000000000000000000000000000007bffffffffffffffffffffffffffffffffffffffffffffffffffffffff19166020820180517bffffffffffffffffffffffffffffffffffffffffffffffffffffffff8381831617835250505050610194565b5050565b6101ab816101a36101ae6101cf565b63ffffffff16565b50565b60006a636f6e736f6c652e6c6f679050600080835160208501845afa505050565b6101da819050919050565b6101e2610336565b565b6000819050919050565b6101f7816101e4565b82525050565b600060208201905061021260008301846101ee565b92915050565b600080fd5b610226816101e4565b811461023157600080fd5b50565b6000813590506102438161021d565b92915050565b60006020828403121561025f5761025e610218565b5b600061026d84828501610234565b91505092915050565b600081519050919050565b600082825260208201905092915050565b60005b838110156102b0578082015181840152602081019050610295565b60008484015250505050565b6000601f19601f8301169050919050565b60006102d882610276565b6102e28185610281565b93506102f2818560208601610292565b6102fb816102bc565b840191505092915050565b6000604082019050818103600083015261032081856102cd565b905061032f60208301846101ee565b9392505050565b7f4e487b7100000000000000000000000000000000000000000000000000000000600052605160045260246000fdfea26469706673582212205d0a0e25894f8ceea611074f03ce084fe372e67fe098f133a0ded060bea5972864736f6c634300081b0033",
  "linkReferences": {},
  "deployedLinkReferences": {}
}